:100000000C94F7000C9418010C9418010C9418012E
:100010000C9418010C9418010C9418010C941801FC
:100020000C9418010C9418010C9418010C941801EC
:100030000C9418010C9418010C9418010C941801DC
:100040000C9418010C9418010C9418010C941801CC
:100050000C9418010C9418010C9418010C941801BC
:100060000C9418010C94D1020C9408030C94180100
:100070000C9418010C9418010C9418010C9418019C
:100080000C9418010C9418010C9418010C9418018C
:100090000C9418010C9418010C9418010C9418017C
:1000A0000C9418010C9418010C9418010C9418016C
:1000B0000C9418010C9418010C9418010C9418015C
:1000C0000C9418010C9418010C9418010C9418014C
:1000D0000C9418010C9418010C9418010C9418013C
:1000E0000C9418010C94A9020C94AC026E616E0081
:1000F000696E660000407A10F35A00A0724E18092B
:100100000010A5D4E80000E87648170000E40B547E
:10011000020000CA9A3B000000E1F505000080964D
:100120009800000040420F000000A086010000007F
:10013000102700000000E803000000006400000039
:1001400000000A00000000000100000000002C7602
:10015000D888DC674F0823DFC1DFAE59E1B1B7961D
:10016000E5E3E453C63AE651997696E8E6C284267A
:10017000EB898C9B62ED407C6FFCEFBC9C9F40F256
:10018000BAA56FA5F490055A2AF75C936B6CF967D2
:100190006DC11BFCE0E40D47FEF520E6B500D0ED97
:1001A000902E0300943577050080841E08000020FF
:1001B0004E0A000000C80C333333330F986E12839D
:1001C0001141EF8D2114893BE65516CFFEE6DB1871
:1001D000D1844B381BF77C1D901DA4BBE424203236
:1001E00084725E228100C9F124ECA1E53D2711242F
:1001F0001FBECFEFD1E2DEBFCDBF00E00CBF12E0EB
:10020000A0E0B2E0E2EAF4E100E00BBF02C0079038
:100210000D92A232B107D9F723E0A2E2B2E001C009
:100220001D92AD3AB207E1F70E9468070C944F0A9D
:100230000C94000080E480937C0087E880937A002F
:10024000089590917C00982B90937C0080917A0087
:10025000806480937A0080917A0084FFFCCF809143
:100260007A00806180937A00809178009091790083
:1002700008958CE090E00E947B07FC01009781F0DC
:1002800011821082138212828CEB92E09783868314
:1002900089E190E095838483108611861286138607
:1002A000CF010895CF92DF92EF92FF920F931F93A9
:1002B000CF93DF93CDB7DEB7C358D1090FB6F8940B
:1002C000DEBF0FBECDBFCF57DF4F188219821A8213
:1002D000C158D0408E010F5F1F4F80E8F801119286
:1002E0008A95E9F7CE018F579F4F6C01E12CF12CD5
:1002F0000E94B803892B31F4EFE1FEE43197F1F766
:1003000000C000000E945103F60181936F018D32FD
:1003100041F4E1E8F0E0EC0FFD1FEE0DFF1D10824F
:1003200007C0FFEFEF1AFF0A43E0E416F10401F7FC
:100330008FE19EE40197F1F700C00000CF57DF4F37
:100340008881C158D0408C3C09F454C048F48A3AA2
:10035000C9F08B3B09F446C0813109F0A7C082C0C7
:100360008E3EA9F18F3F09F462C08D3D09F09EC019
:1003700015B8E091A703F091A803118210821F9293
:1003800082E196C0E091A703F091A80381818F9349
:1003900080818F9383858F9382858F9381858F93BF
:1003A00080858F9387818F9386818F9385818F93AB
:1003B00084818F9383818F9382818F938CE092E0ED
:1003C0009F938F931F930F930E94C20927C0E091C0
:1003D000A703F091A80381E090E0918380831F92AE
:1003E00083E166C0E091A703F091A80383818F9316
:1003F00082815EC0E091A703F091A80383858F936B
:1004000082858F9381858F9380858F938DE192E094
:100410009F938F931F930F930E94C209C8010E945C
:100420009D030FB6F894DEBF0FBECDBF53C0CE57AD
:10043000DF4F2881C258D040211103C01F9282E1B2
:100440001AC030E0E091A703F091A8038481958160
:10045000820F931F81159440E8F5378326831F92FE
:1004600081E126C0CE57DF4F2881C258D0402111EC
:100470000CC01F9285E58F9388E192E09F938F9344
:100480001F930F930E94C2091FC030E0E091A703A1
:10049000F091A80386819781820F931F8115944064
:1004A000C8F4378326831F9280E102C01F9284E440
:1004B0008F9388E192E09F938F931F930F930E94F5
:1004C000C209C8010E949D030F900F900F900F90DA
:1004D0000F900F900E94BF0381E0CD57DF4F0FB602
:1004E000F894DEBF0FBECDBFDF91CF911F910F916A
:1004F000FF90EF90DF90CF900895E091A703F091E7
:10050000A80380819181009711F122813381668156
:10051000778144815581DA01A60FB71F2A173B075F
:1005200048F08130910531F081E090E09183808343
:1005300015B80DC0641B750B6217730740F0029766
:1005400031F082E090E09183808380E885B981E09A
:10055000089580E885B9089515B8089578940E94A3
:100560001A0183E390E00E943803279A0E94390120
:100570009093A8038093A70381E00895CF93DF931E
:10058000C091A703D091A80380E00E9421012FEF22
:1005900033E0281B390B3B832A83DF91CF910895E9
:1005A00008951F920F920FB60F9211240BB60F925F
:1005B0002F933F934F935F938F939F93EF93FF936B
:1005C0004091C0005091C6004871809124028F5F15
:1005D00090E02091230230E08217930739F0809356
:1005E0002402FC01E95DFD4F508301C042E04093CD
:1005F0002202FF91EF919F918F915F914F913F91D7
:100600002F910F900BBE0F900FBE0F901F9018955B
:100610001F920F920FB60F9211240BB60F928F9369
:100620009F93EF93FF939091260280912502981754
:1006300079F08091250290E001968F779927809339
:100640002502FC01E95DFC4F80818093C60005C056
:100650008091C1008F7D8093C100FF91EF919F91A8
:100660008F910F900BBE0F900FBE0F901F9018959B
:100670001092260210922502109224021092230258
:1006800097FF04C022E02093C0009F779093C5009D
:100690008093C40088E98093C10086E08093C20003
:1006A00008959091240280912302981791F08091EF
:1006B00023028F5F90E080932302FC01E95DFD4FF0
:1006C00020818091220290E0982F8827820F911D2F
:1006D000089580E091E00895909124028091230292
:1006E000981779F0E0912302EF5FF0E0E95DFD4FAC
:1006F00020818091220290E0982F8827820F911DFF
:10070000089580E091E008952091260230E02F5F67
:100710003F4F2F7733274091250250E024173507AC
:10072000D1F3F901E95DFC4F80832093260280918B
:10073000C10080628093C1000895CF93DF93EC01E4
:100740008991882319F00E948403FACFDF91CF9119
:100750000895CF93DF93FC018491EF0121968823C4
:1007600021F00E948403FE01F7CFDF91CF9108951D
:100770008091240290912302891B90E0089580913A
:1007800023028093240208952F923F924F925F920A
:100790006F927F928F929F92AF92BF92CF92DF9291
:1007A000EF92FF920F931F93CF93DF93CDB7DEB7F6
:1007B00063970FB6F894DEBF0FBECDBF7C011B015F
:1007C0006A01FC0117821682838181FF66C3BE0124
:1007D0006F5F7F4F4B01F7019381F10193FD85918D
:1007E00093FF81911F01882309F453C3853239F4A3
:1007F00093FD859193FF81911F01853239F4B701F3
:1008000090E00E94900956016501E5CF10E0512C5F
:1008100020E02032A0F48B3269F030F4803259F0BD
:10082000833269F420612CC08D3239F0803339F481
:10083000216026C02260246023C0286021C027FDDB
:1008400027C030ED380F3A3078F426FF06C0FAE0C2
:100850001F9F300D1124132F13C06AE0569E300DD8
:100860001124532E20620CC08E3221F426FD11C3B8
:10087000206406C08C3611F4206802C0883641F42A
:10088000F10193FD859193FF81911F018111C1CFEA
:100890009BEB980F933018F42061805E06C09BE9B3
:1008A000980F933008F0AAC12F7E26FF16E02F7311
:1008B000722E853621F4F22FF0647F2E08C0863622
:1008C00021F4622F6068762E02C01111115077FE5C
:1008D00007C01C3348F444244394410E27E00BC066
:1008E000183030F4212F06C027E04CE3442E03C01B
:1008F00027E017E0412C560174E0A70EB11CF60169
:100900006081718182819381042DA4010E94A208DB
:100910006C01098100FF02C003FF06C071FC07C023
:1009200072FC08C0612C08C03DE2632E05C02BE2BA
:10093000622E02C090E2692E802F8C7099F16620A1
:1009400011F084E001C083E0851510F0512C0BC03C
:10095000581A73FC08C0B70180E290E00E94900929
:100960005A94C9F7F3CF662029F0B701862D90E09D
:100970000E94900903FD03C000EF10E002C00CEEDE
:1009800010E0F72DF0717F2EF8018491882309F48F
:1009900076C271108052B70190E00E9490090F5FFB
:1009A0001F4FF2CF77FE0FC04C0C04FF04C08A81AA
:1009B000813309F44A94141474F5F8E0F41578F5C9
:1009C00088E0482E2CC076FC2AC0812F90E08C1540
:1009D0009D059CF06CEFC6166FEFD60674F0772D70
:1009E0007068772E0AC0E2E0F0E0EC0FFD1FE10F27
:1009F000F11D8081803319F411501111F4CF77FE6D
:100A00000EC044244394410E812F90E0C816D906AD
:100A10002CF41C1904C04424439401C010E077FE58
:100A200007C01C141D043CF496012F5F3F4F05C006
:100A300025E030E002C021E030E0662011F02F5FB9
:100A40003F4F112331F0412F50E04F5F5F4F240F94
:100A5000351F452D50E02417350714F4521A01C0F4
:100A6000512C872D897049F4552039F0B70180E267
:100A700090E00E9490095A94F7CF662029F0B701C0
:100A8000862D90E00E94900973FC09C0552039F032
:100A9000B70180E390E00E9490095A94F7CF77FE67
:100AA0005FC09C2D8D2DD7FE02C090E080E0692EA6
:100AB000782E40E050E0C601841991099D878C870B
:100AC000960126193709280D391D812F90E0EE2750
:100AD000FF27E81BF90BFF87EE87FFEF6F167F06F6
:100AE00069F4B7018EE290E02B8B3A8B488B598BDF
:100AF0000E949009598948893A892B89C614D704DC
:100B000054F06C857D85661577052CF4F901E40FAA
:100B1000F51F818101C080E371E0671A71084F5FA2
:100B20005F4FEE85FF856E167F066CF0B70190E093
:100B30002B8B3A8B488B598B0E9490092B893A89D1
:100B400048895989CACF6C147D0439F49A81963347
:100B500018F4953311F404FF81E3B70190E04BC022
:100B60008A81813309F00F7EB70190E00E949009DD
:100B7000111105C074FE18C085E490E017C0B701DC
:100B80008EE290E00E94900982E066246394680EF1
:100B9000F401E80FF11D8081B70190E00E949009F7
:100BA000115041F3862DF1CF85E690E0B7010E9408
:100BB0009009D7FC05C0C114D10439F404FF05C065
:100BC000D194C194D1088DE201C08BE2B70190E0CD
:100BD0000E94900980E36AE0C616D1042CF08F5F72
:100BE000FAE0CF1AD108F7CFB70190E00E94900940
:100BF000B701C601C0960E94900941C1833631F009
:100C0000833779F0833509F058C021C0560172E06E
:100C1000A70EB11CF6018081898301E010E0640118
:100C200014C05601F2E0AF0EB11CF601C080D180B5
:100C300026FF03C0612F70E002C06FEF7FEFC60197
:100C40002B8B0E9485098C012B892F7715C05601AB
:100C5000F2E0AF0EB11CF601C080D18026FF03C0C8
:100C6000612F70E002C06FEF7FEFC6012B8B0E94F7
:100C70007A098C012B892068722E23FD1AC0852DDC
:100C800090E008171907A8F4B70180E290E00E94ED
:100C900090095A94F4CFF60177FC859177FE819103
:100CA0006F01B70190E00E94900951105A940150D1
:100CB00011090115110579F7E2C0843611F0893662
:100CC00051F5560127FF09C0F4E0AF0EB11CF60143
:100CD00060817181828193810AC0F2E0AF0EB11C04
:100CE000F60160817181882777FD8095982F022F0A
:100CF0000F7697FF08C090958095709561957F4F0E
:100D00008F4F9F4F00682AE030E0A4010E94F10954
:100D1000C82EC8183EC0022F853721F40F7E2AE066
:100D200030E01DC0097F8F3691F018F4883559F0F6
:100D3000B0C0803719F0883711F0ABC0006104FFF4
:100D400009C0046007C024FF08C0066006C028E090
:100D500030E005C020E130E002C020E132E0560181
:100D600007FF09C0F4E0AF0EB11CF601608171818C
:100D70008281938108C0F2E0AF0EB11CF601608160
:100D8000718180E090E0A4010E94F109C82EC8188A
:100D90000F7706FF0BC0202F2E7FC11650F404FFE3
:100DA0000AC002FD08C0202F2E7E05C0DC2C202F9B
:100DB00003C0DC2C01C0D12E24FF0DC0FE01EC0DC0
:100DC000F11D8081803311F4297E09C022FF06C005
:100DD000D394D39404C0822F867809F0D39423FD52
:100DE00013C020FF06C01C2DD51418F4150D1D19B5
:100DF000D52CD51468F4B70180E290E02B8B0E94CB
:100E00009009D3942B89F5CFD51410F45D1801C047
:100E1000512C24FF12C0B70180E390E02B8B0E947D
:100E200090092B8922FF17C021FF03C088E590E0BD
:100E300002C088E790E0B7010CC0822F867859F095
:100E400021FD02C080E201C08BE227FD8DE2B701E7
:100E500090E00E949009C11638F4B70180E390E059
:100E60000E9490091150F7CFCA94F401EC0DF11DC6
:100E70008081B70190E00E949009C110F5CF552004
:100E800009F4C2CCB70180E290E00E9490095A9424
:100E9000F6CFF7018681978102C08FEF9FEF6396AF
:100EA0000FB6F894DEBF0FBECDBFDF91CF911F917B
:100EB0000F91FF90EF90DF90CF90BF90AF909F90F9
:100EC0008F907F906F905F904F903F902F900895FC
:100ED0000E94AE02811108C00E9468070E94BE02F3
:100EE0000E94D0020E947D020E94B803892BB1F3B8
:100EF0000E945201F3CFCF93DF938230910510F41B
:100F000082E090E0E091AB03F091AC0320E030E0B0
:100F1000A0E0B0E0309739F140815181481759077E
:100F2000B8F04817590771F482819381109729F01E
:100F300013969C938E9312972CC09093AC0380933E
:100F4000AB0327C02115310531F04217530718F0C4
:100F5000A901DB0101C0EF019A01BD01DF0102809F
:100F6000F381E02DD7CF21153105F9F0281B390B7E
:100F70002430310580F48A819B816115710521F04F
:100F8000FB019383828304C09093AC038093AB03F3
:100F9000FE01329644C0FE01E20FF31F819391934C
:100FA00022503109398328833AC02091A903309116
:100FB000AA03232B41F420910802309109023093B7
:100FC000AA032093A903209106023091070221155C
:100FD000310541F42DB73EB740910A0250910B0202
:100FE000241B350BE091A903F091AA03E217F30744
:100FF000A0F42E1B3F0B2817390778F0AC014E5F89
:101000005F4F2417350748F04E0F5F1F5093AA0318
:101010004093A9038193919302C0E0E0F0E0CF01F7
:10102000DF91CF910895CF93DF93009709F487C0A4
:10103000FC01329713821282C091AB03D091AC03B2
:10104000209781F420813181280F391F8091A903D5
:101050009091AA038217930779F5F093AA03E0937E
:10106000A9036DC0DE0120E030E0AE17BF0750F4E9
:1010700012964D915C9113979D014115510509F10F
:10108000DA01F3CFB383A28340815181840F951F8E
:101090008A179B0771F48D919C911197840F951F6E
:1010A00002969183808312968D919C9113979383DE
:1010B00082832115310529F4F093AC03E093AB034F
:1010C0003EC0D9011396FC93EE9312974D915D911A
:1010D000A40FB51FEA17FB0779F480819181840F73
:1010E000951F0296D90111969C938E9382819381CC
:1010F00013969C938E931297E0E0F0E08A819B8197
:10110000009719F0FE01EC01F9CFCE01029628817B
:101110003981820F931F2091A9033091AA032817C8
:10112000390769F4309729F41092AC031092AB039D
:1011300002C013821282D093AA03C093A903DF9145
:10114000CF910895283008F027E03327DA01990F6E
:10115000311D87FD916000966105710539F432609B
:101160002E5F3D9330E32A95E1F708959F3F30F0DD
:1011700080387105610509F03C5F3C5F3D9391301B
:1011800008F08068911DDF93CF931F930F93FF9218
:10119000EF92192F987F9695E92F96959695E90FDE
:1011A000FF27E25BFE4F99273327EE24FF24A70198
:1011B000E70105900894079428F4360FE71EF81EFF
:1011C000491F511D660F771F881F991F0694A1F7AD
:1011D0000590079428F4E70EF81E491F561FC11DFD
:1011E000770F881F991F661F0694A1F70590079433
:1011F00028F4F80E491F561FC71FD11D880F991FCD
:10120000661F771F0694A1F70590079420F4490FF5
:10121000561FC71FD81F990F661F771F881F069478
:10122000A9F784911095177041F0D695C7955795F9
:101230004795F794E7941A95C1F7E4EFF0E06894C6
:101240001590159135916591959105907FE2739573
:10125000E118F10A430B560BC90BD009C0F7E10C9A
:10126000F11E431F561FC91FD01D7EF4703311F4A9
:101270008A95E6CFE894015030F0080F0AF4002771
:10128000021708F4202F2395022F7A3328F079E3F0
:101290007D932A95E9F710C07D932A9589F60694E7
:1012A00097956795379517951794E118F10A430BB1
:1012B000560BC90BD00998F023957E9173957A331C
:1012C00008F070E37C932013B8F77E9170617D93F2
:1012D00030F0839571E37D9370E32A95E1F7112453
:1012E000EF90FF900F911F91CF91DF91992787FD8C
:1012F00090950895FC010590615070400110D8F759
:10130000809590958E0F9F1F0895FC01615070404D
:1013100001900110D8F7809590958E0F9F1F08952A
:101320000F931F93CF93DF93182F092FEB018B811E
:1013300081FD03C08FEF9FEF20C082FF10C04E8160
:101340005F812C813D81421753077CF4E881F9814C
:101350009F012F5F3F4F39832883108306C0E885A4
:10136000F985812F1995892B29F72E813F812F5FD0
:101370003F4F3F832E83812F902FDF91CF911F917D
:101380000F9108950F931F93CF93DF93CDB7DEB7DF
:101390002E970FB6F894DEBF0FBECDBF0E891F8902
:1013A00086E08C831A8309838FEF9FE79E838D836A
:1013B000AE01465E5F4F688D798DCE0101960E9429
:1013C000C403EF81F885E00FF11F10822E960FB64F
:1013D000F894DEBF0FBECDBFDF91CF911F910F916B
:1013E0000895FA01AA27283051F1203181F1E894BB
:1013F0006F936E7F6E5F7F4F8F4F9F4FAF4FB1E008
:101400003ED0B4E03CD0670F781F891F9A1FA11D02
:10141000680F791F8A1F911DA11D6A0F711D811D03
:10142000911DA11D20D009F468943F912AE0269FC8
:1014300011243019305D3193DEF6CF010895462F27
:101440004770405D4193B3E00FD0C9F7F6CF462F08
:101450004F70405D4A3318F0495D31FD4052419371
:1014600002D0A9F7EACFB4E0A6959795879577952E
:101470006795BA95C9F700976105710508959B01B5
:10148000AC010A2E06945795479537952795BA953E
:10149000C9F7620F731F841F951FA01D0895F8944C
:0214A000FFCF7C
:1014A200AC02AC02A9020000AD0320002F25642F7C
:1014B20025642F25642F25662F25642F002F25668E
:0214C2002F00F9
:00000001FF
